{
  "contractName": "AmazonStock",
  "abi": [
    {
      "inputs": [
        {
          "internalType": "address",
          "name": "_owner",
          "type": "address"
        }
      ],
      "stateMutability": "nonpayable",
      "type": "constructor"
    },
    {
      "anonymous": false,
      "inputs": [
        {
          "indexed": true,
          "internalType": "address",
          "name": "_buyer",
          "type": "address"
        },
        {
          "indexed": true,
          "internalType": "uint256",
          "name": "amount",
          "type": "uint256"
        }
      ],
      "name": "Bought",
      "type": "event"
    },
    {
      "anonymous": false,
      "inputs": [
        {
          "indexed": true,
          "internalType": "address",
          "name": "_from",
          "type": "address"
        },
        {
          "indexed": true,
          "internalType": "address",
          "name": "_to",
          "type": "address"
        },
        {
          "indexed": false,
          "internalType": "uint256",
          "name": "_value",
          "type": "uint256"
        }
      ],
      "name": "Transfer",
      "type": "event"
    },
    {
      "inputs": [
        {
          "internalType": "address",
          "name": "",
          "type": "address"
        }
      ],
      "name": "balanceOf",
      "outputs": [
        {
          "internalType": "uint256",
          "name": "",
          "type": "uint256"
        }
      ],
      "stateMutability": "view",
      "type": "function"
    },
    {
      "inputs": [
        {
          "internalType": "address",
          "name": "",
          "type": "address"
        }
      ],
      "name": "customerData",
      "outputs": [
        {
          "internalType": "uint256",
          "name": "priceToBuy",
          "type": "uint256"
        },
        {
          "internalType": "bool",
          "name": "request",
          "type": "bool"
        },
        {
          "internalType": "uint256",
          "name": "requestIndex",
          "type": "uint256"
        }
      ],
      "stateMutability": "view",
      "type": "function"
    },
    {
      "inputs": [],
      "name": "decimals",
      "outputs": [
        {
          "internalType": "uint8",
          "name": "",
          "type": "uint8"
        }
      ],
      "stateMutability": "view",
      "type": "function"
    },
    {
      "inputs": [],
      "name": "name",
      "outputs": [
        {
          "internalType": "string",
          "name": "",
          "type": "string"
        }
      ],
      "stateMutability": "view",
      "type": "function"
    },
    {
      "inputs": [],
      "name": "symbol",
      "outputs": [
        {
          "internalType": "string",
          "name": "",
          "type": "string"
        }
      ],
      "stateMutability": "view",
      "type": "function"
    },
    {
      "inputs": [],
      "name": "totalSupply",
      "outputs": [
        {
          "internalType": "uint256",
          "name": "",
          "type": "uint256"
        }
      ],
      "stateMutability": "view",
      "type": "function"
    },
    {
      "inputs": [
        {
          "internalType": "uint256",
          "name": "_numberOfTokens",
          "type": "uint256"
        },
        {
          "internalType": "address",
          "name": "_sender",
          "type": "address"
        }
      ],
      "name": "buyStock",
      "outputs": [],
      "stateMutability": "nonpayable",
      "type": "function"
    },
    {
      "inputs": [
        {
          "internalType": "address",
          "name": "_sender",
          "type": "address"
        }
      ],
      "name": "requestToBuy",
      "outputs": [],
      "stateMutability": "nonpayable",
      "type": "function"
    },
    {
      "inputs": [],
      "name": "getApiAddress",
      "outputs": [
        {
          "internalType": "address",
          "name": "",
          "type": "address"
        }
      ],
      "stateMutability": "view",
      "type": "function"
    },
    {
      "inputs": [],
      "name": "getContractAddressStock",
      "outputs": [
        {
          "internalType": "address",
          "name": "",
          "type": "address"
        }
      ],
      "stateMutability": "view",
      "type": "function"
    }
  ],
  "bytecode": "0x60806040526040518060400160405280601481526020017f45636f6d6d6572636520546f6b656e2076312e300000000000000000000000008152506000908051906020019061004f9291906101b2565b506a52b7d2dcc80cd2e4000000600155670e6ed27d6668000060025534801561007757600080fd5b506040516123843803806123848339818101604052602081101561009a57600080fd5b810190808051906020019092919050505060016004819055506a52b7d2dcc80cd2e4000000600760003073ffffffffffffffffffffffffffffffffffffffff1673ffffffffffffffffffffffffffffffffffffffff1681526020019081526020016000208190555080600360006101000a81548173ffffffffffffffffffffffffffffffffffffffff021916908373ffffffffffffffffffffffffffffffffffffffff16021790555060405161014f90610232565b604051809103906000f08015801561016b573d6000803e3d6000fd5b50600560006101000a81548173ffffffffffffffffffffffffffffffffffffffff021916908373ffffffffffffffffffffffffffffffffffffffff16021790555050610264565b828054600181600116156101000203166002900490600052602060002090601f016020900481019282601f106101f357805160ff1916838001178555610221565b82800160010185558215610221579182015b82811115610220578251825591602001919060010190610205565b5b50905061022e919061023f565b5090565b61157e80610e0683390190565b61026191905b8082111561025d576000816000905550600101610245565b5090565b90565b610b93806102736000396000f3fe608060405234801561001057600080fd5b506004361061009e5760003560e01c80636aa518c1116100665780636aa518c1146101fc57806370a082311461024057806395d89b4114610298578063b5aa437d1461031b578063e95e8ee0146103855761009e565b806306fdde03146100a357806318160ddd146101265780631d4a958e14610144578063313ce5671461018e578063410fe5b7146101b2575b600080fd5b6100ab6103d3565b6040518080602001828103825283818151815260200191508051906020019080838360005b838110156100eb5780820151818401526020810190506100d0565b50505050905090810190601f1680156101185780820380516001836020036101000a031916815260200191505b509250505060405180910390f35b61012e61040c565b6040518082815260200191505060405180910390f35b61014c61041b565b604051808273ffffffffffffffffffffffffffffffffffffffff1673ffffffffffffffffffffffffffffffffffffffff16815260200191505060405180910390f35b6101966104c5565b604051808260ff1660ff16815260200191505060405180910390f35b6101ba6104ca565b604051808273ffffffffffffffffffffffffffffffffffffffff1673ffffffffffffffffffffffffffffffffffffffff16815260200191505060405180910390f35b61023e6004803603602081101561021257600080fd5b81019080803573ffffffffffffffffffffffffffffffffffffffff1690602001909291905050506104d2565b005b6102826004803603602081101561025657600080fd5b81019080803573ffffffffffffffffffffffffffffffffffffffff1690602001909291905050506105ff565b6040518082815260200191505060405180910390f35b6102a0610617565b6040518080602001828103825283818151815260200191508051906020019080838360005b838110156102e05780820151818401526020810190506102c5565b50505050905090810190601f16801561030d5780820380516001836020036101000a031916815260200191505b509250505060405180910390f35b61035d6004803603602081101561033157600080fd5b81019080803573ffffffffffffffffffffffffffffffffffffffff169060200190929190505050610650565b6040518084815260200183151515158152602001828152602001935050505060405180910390f35b6103d16004803603604081101561039b57600080fd5b8101908080359060200190929190803573ffffffffffffffffffffffffffffffffffffffff169060200190929190505050610687565b005b6040518060400160405280601281526020017f416d617a6f6e2053746f636b20546f6b656e000000000000000000000000000081525081565b6a52b7d2dcc80cd2e400000081565b6000600560009054906101000a900473ffffffffffffffffffffffffffffffffffffffff1673ffffffffffffffffffffffffffffffffffffffff166332a2c5d06040518163ffffffff1660e01b815260040160206040518083038186803b15801561048557600080fd5b505afa158015610499573d6000803e3d6000fd5b505050506040513d60208110156104af57600080fd5b8101908080519060200190929190505050905090565b601281565b600030905090565b600560009054906101000a900473ffffffffffffffffffffffffffffffffffffffff1673ffffffffffffffffffffffffffffffffffffffff16631604f9ea6040518163ffffffff1660e01b8152600401600060405180830381600087803b15801561053c57600080fd5b505af1158015610550573d6000803e3d6000fd5b50505050604051806060016040528060008152602001600015158152602001600454815250600860008373ffffffffffffffffffffffffffffffffffffffff1673ffffffffffffffffffffffffffffffffffffffff1681526020019081526020016000206000820151816000015560208201518160010160006101000a81548160ff02191690831515021790555060408201518160020155905050600160046000828254019250508190555050565b60076020528060005260406000206000915090505481565b6040518060400160405280600381526020017f414d53000000000000000000000000000000000000000000000000000000000081525081565b60086020528060005260406000206000915090508060000154908060010160009054906101000a900460ff16908060020154905083565b610690816107ef565b6106e5576040517f08c379a000000000000000000000000000000000000000000000000000000000815260040180806020018281038252602f815260200180610b2f602f913960400191505060405180910390fd5b6106ee816108ed565b600860008373ffffffffffffffffffffffffffffffffffffffff1673ffffffffffffffffffffffffffffffffffffffff168152602001908152602001600020600001819055506001600860008373ffffffffffffffffffffffffffffffffffffffff1673ffffffffffffffffffffffffffffffffffffffff16815260200190815260200160002060010160006101000a81548160ff02191690831515021790555060006107dd83600860008573ffffffffffffffffffffffffffffffffffffffff1673ffffffffffffffffffffffffffffffffffffffff168152602001908152602001600020600001546109eb565b90506107e98282610a04565b50505050565b600080600860008473ffffffffffffffffffffffffffffffffffffffff1673ffffffffffffffffffffffffffffffffffffffff168152602001908152602001600020600201549050600560009054906101000a900473ffffffffffffffffffffffffffffffffffffffff1673ffffffffffffffffffffffffffffffffffffffff166372763d0d826040518263ffffffff1660e01b81526004018082815260200191505060206040518083038186803b1580156108aa57600080fd5b505afa1580156108be573d6000803e3d6000fd5b505050506040513d60208110156108d457600080fd5b8101908080519060200190929190505050915050919050565b600080600860008473ffffffffffffffffffffffffffffffffffffffff1673ffffffffffffffffffffffffffffffffffffffff168152602001908152602001600020600201549050600560009054906101000a900473ffffffffffffffffffffffffffffffffffffffff1673ffffffffffffffffffffffffffffffffffffffff1663d75548f2826040518263ffffffff1660e01b81526004018082815260200191505060206040518083038186803b1580156109a857600080fd5b505afa1580156109bc573d6000803e3d6000fd5b505050506040513d60208110156109d257600080fd5b8101908080519060200190929190505050915050919050565b6000808284816109f757fe5b0490508091505092915050565b6000816001541015610a1557600080fd5b8160016000828254039250508190555081600760003073ffffffffffffffffffffffffffffffffffffffff1673ffffffffffffffffffffffffffffffffffffffff1681526020019081526020016000206000828254039250508190555081600760008573ffffffffffffffffffffffffffffffffffffffff1673ffffffffffffffffffffffffffffffffffffffff168152602001908152602001600020600082825401925050819055508273ffffffffffffffffffffffffffffffffffffffff163073ffffffffffffffffffffffffffffffffffffffff167fddf252ad1be2c89b69c2b068fc378daa952ba7f163c4a11628f55a4df523b3ef846040518082815260200191505060405180910390a3600190509291505056fe596f757220726571756573742069732070656e64696e672c20706c65617365207761697420747279206c6174657221a26469706673582212203aa24ed39975501aaebe5cae134552c23657ae0f402d86603d223d41e54f80d664736f6c634300060000336080604052600160045534801561001557600080fd5b506100246100bc60201b60201c565b73c57b33452b4f7bb189bb5afae9cc4aba1f7a4fd8601360006101000a81548173ffffffffffffffffffffffffffffffffffffffff021916908373ffffffffffffffffffffffffffffffffffffffff1602179055507f643532373064316333313139343164306230386265616432316665613737343760148190555067016345785d8a000060158190555060016007819055506101a5565b61015f73c89bd4e1632d3a43cb03aaad5262cbe4038bc57173ffffffffffffffffffffffffffffffffffffffff166338cc48316040518163ffffffff1660e01b815260040160206040518083038186803b15801561011957600080fd5b505afa15801561012d573d6000803e3d6000fd5b505050506040513d602081101561014357600080fd5b810190808051906020019092919050505061016160201b60201c565b565b80600260006101000a81548173ffffffffffffffffffffffffffffffffffffffff021916908373ffffffffffffffffffffffffffffffffffffffff16021790555050565b6113ca806101b46000396000f3fe608060405234801561001057600080fd5b50600436106100625760003560e01c80631604f9ea1461006757806332a2c5d0146100715780634357855e146100bb57806372763d0d146100f35780638dc654a214610139578063d75548f214610143575b600080fd5b61006f610185565b005b610079610312565b604051808273ffffffffffffffffffffffffffffffffffffffff1673ffffffffffffffffffffffffffffffffffffffff16815260200191505060405180910390f35b6100f1600480360360408110156100d157600080fd5b81019080803590602001909291908035906020019092919050505061031a565b005b61011f6004803603602081101561010957600080fd5b8101908080359060200190929190505050610490565b604051808215151515815260200191505060405180910390f35b6101416104bc565b005b61016f6004803603602081101561015957600080fd5b81019080803590602001909291905050506106b6565b6040518082815260200191505060405180910390f35b61018d61124b565b6101a160145430634357855e60e01b6106ce565b905061020f6040518060400160405280600381526020017f676574000000000000000000000000000000000000000000000000000000000081525060405160200180806112ed605d9139605d019050604051602081830303815290604052836106ff9092919063ffffffff16565b61028e6040518060400160405280600481526020017f70617468000000000000000000000000000000000000000000000000000000008152506040518060400160405280600581526020017f7072696365000000000000000000000000000000000000000000000000000000815250836106ff9092919063ffffffff16565b6000606490506102de6040518060400160405280600581526020017f74696d657300000000000000000000000000000000000000000000000000000081525082846107329092919063ffffffff16565b61030d601360009054906101000a900473ffffffffffffffffffffffffffffffffffffffff1683601554610765565b505050565b600030905090565b816005600082815260200190815260200160002060009054906101000a900473ffffffffffffffffffffffffffffffffffffffff1673ffffffffffffffffffffffffffffffffffffffff163373ffffffffffffffffffffffffffffffffffffffff16146103d2576040517f08c379a000000000000000000000000000000000000000000000000000000000815260040180806020018281038252602881526020018061136d6028913960400191505060405180910390fd5b6005600082815260200190815260200160002060006101000a81549073ffffffffffffffffffffffffffffffffffffffff0219169055807f7cc135e0cebb02c3480ae5d74d377283180a2601f8f644edf7987b009316c63a60405160405180910390a2816008600754600a811061044557fe5b018190555060016012600754600a811061045b57fe5b602091828204019190066101000a81548160ff0219169083151502179055506001600760008282540192505081905550505050565b6000601282600a811061049f57fe5b602091828204019190069054906101000a900460ff169050919050565b60006104c6610a1d565b90508073ffffffffffffffffffffffffffffffffffffffff1663a9059cbb338373ffffffffffffffffffffffffffffffffffffffff166370a08231306040518263ffffffff1660e01b8152600401808273ffffffffffffffffffffffffffffffffffffffff1673ffffffffffffffffffffffffffffffffffffffff16815260200191505060206040518083038186803b15801561056257600080fd5b505afa158015610576573d6000803e3d6000fd5b505050506040513d602081101561058c57600080fd5b81019080805190602001909291905050506040518363ffffffff1660e01b8152600401808373ffffffffffffffffffffffffffffffffffffffff1673ffffffffffffffffffffffffffffffffffffffff16815260200182815260200192505050602060405180830381600087803b15801561060657600080fd5b505af115801561061a573d6000803e3d6000fd5b505050506040513d602081101561063057600080fd5b81019080805190602001909291905050506106b3576040517f08c379a00000000000000000000000000000000000000000000000000000000081526004018080602001828103825260128152602001807f556e61626c6520746f207472616e73666572000000000000000000000000000081525060200191505060405180910390fd5b50565b6000600882600a81106106c557fe5b01549050919050565b6106d661124b565b6106de61124b565b6106f585858584610a47909392919063ffffffff16565b9150509392505050565b610716828460800151610af790919063ffffffff16565b61072d818460800151610af790919063ffffffff16565b505050565b610749828460800151610af790919063ffffffff16565b610760818460800151610b1c90919063ffffffff16565b505050565b600030600454604051602001808373ffffffffffffffffffffffffffffffffffffffff1673ffffffffffffffffffffffffffffffffffffffff1660601b815260140182815260200192505050604051602081830303815290604052805190602001209050600454836060018181525050836005600083815260200190815260200160002060006101000a81548173ffffffffffffffffffffffffffffffffffffffff021916908373ffffffffffffffffffffffffffffffffffffffff160217905550807fb5e6e01e79f91267dc17b4e6314d5d4d03593d2ceee0fbb452b750bd70ea5af960405160405180910390a2600260009054906101000a900473ffffffffffffffffffffffffffffffffffffffff1673ffffffffffffffffffffffffffffffffffffffff16634000aea0858461089d87610bc0565b6040518463ffffffff1660e01b8152600401808473ffffffffffffffffffffffffffffffffffffffff1673ffffffffffffffffffffffffffffffffffffffff16815260200183815260200180602001828103825283818151815260200191508051906020019080838360005b83811015610924578082015181840152602081019050610909565b50505050905090810190601f1680156109515780820380516001836020036101000a031916815260200191505b50945050505050602060405180830381600087803b15801561097257600080fd5b505af1158015610986573d6000803e3d6000fd5b505050506040513d602081101561099c57600080fd5b8101908080519060200190929190505050610a02576040517f08c379a000000000000000000000000000000000000000000000000000000000815260040180806020018281038252602381526020018061134a6023913960400191505060405180910390fd5b60016004600082825401925050819055508090509392505050565b6000600260009054906101000a900473ffffffffffffffffffffffffffffffffffffffff16905090565b610a4f61124b565b610a5f8560800151610100610dc7565b508385600001818152505082856020019073ffffffffffffffffffffffffffffffffffffffff16908173ffffffffffffffffffffffffffffffffffffffff16815250508185604001907bffffffffffffffffffffffffffffffffffffffffffffffffffffffff191690817bffffffffffffffffffffffffffffffffffffffffffffffffffffffff191681525050849050949350505050565b610b048260038351610e1b565b610b178183610f6090919063ffffffff16565b505050565b7fffffffffffffffffffffffffffffffffffffffffffffffff0000000000000000811215610b5357610b4e8282610f82565b610bbc565b67ffffffffffffffff811315610b7257610b6d8282610ff0565b610bbb565b60008112610b8b57610b8682600083610e1b565b610bba565b610bb9826001837fffffffffffffffffffffffffffffffffffffffffffffffffffffffffffffffff03610e1b565b5b5b5b5050565b6060600360009054906101000a900473ffffffffffffffffffffffffffffffffffffffff1673ffffffffffffffffffffffffffffffffffffffff166340429946905060e01b60008084600001518560200151866040015187606001516001896080015160000151604051602401808973ffffffffffffffffffffffffffffffffffffffff1673ffffffffffffffffffffffffffffffffffffffff1681526020018881526020018781526020018673ffffffffffffffffffffffffffffffffffffffff1673ffffffffffffffffffffffffffffffffffffffff168152602001857bffffffffffffffffffffffffffffffffffffffffffffffffffffffff19167bffffffffffffffffffffffffffffffffffffffffffffffffffffffff1916815260200184815260200183815260200180602001828103825283818151815260200191508051906020019080838360005b83811015610d2a578082015181840152602081019050610d0f565b50505050905090810190601f168015610d575780820380516001836020036101000a031916815260200191505b509950505050505050505050604051602081830303815290604052907bffffffffffffffffffffffffffffffffffffffffffffffffffffffff19166020820180517bffffffffffffffffffffffffffffffffffffffffffffffffffffffff83818316178352505050509050919050565b610dcf6112b8565b600060208381610ddb57fe5b0614610df45760208281610deb57fe5b06602003820191505b81836020018181525050604051808452600081528281016020016040525082905092915050565b60178111610e4857610e428160058460ff16901b60ff16178461103c90919063ffffffff16565b50610f5b565b60ff8111610e8a57610e6d601860058460ff16901b178461103c90919063ffffffff16565b50610e848160018561105c9092919063ffffffff16565b50610f5a565b61ffff8111610ecd57610eb0601960058460ff16901b178461103c90919063ffffffff16565b50610ec78160028561105c9092919063ffffffff16565b50610f59565b63ffffffff8111610f1257610ef5601a60058460ff16901b178461103c90919063ffffffff16565b50610f0c8160048561105c9092919063ffffffff16565b50610f58565b67ffffffffffffffff8111610f5757610f3e601b60058460ff16901b178461103c90919063ffffffff16565b50610f558160088561105c9092919063ffffffff16565b505b5b5b5b5b505050565b610f686112b8565b610f7a8384600001515184855161107e565b905092915050565b610fa060036005600660ff16901b178361103c90919063ffffffff16565b50610fec82827fffffffffffffffffffffffffffffffffffffffffffffffffffffffffffffffff0360405160200180828152602001915050604051602081830303815290604052611137565b5050565b61100e60026005600660ff16901b178361103c90919063ffffffff16565b50611038828260405160200180828152602001915050604051602081830303815290604052611137565b5050565b6110446112b8565b611054838460000151518461115c565b905092915050565b6110646112b8565b6110758485600001515185856111aa565b90509392505050565b6110866112b8565b825182111561109457600080fd5b846020015182850111156110bf576110be8560026110b8886020015188870161120b565b02611227565b5b6000808651805187602083010193508088870111156110de5787860182525b60208701925050505b6020841061110a57805182526020820191506020810190506020840393506110e7565b60006001856020036101000a03905080198251168184511681811785525050879350505050949350505050565b6111448260028351610e1b565b6111578183610f6090919063ffffffff16565b505050565b6111646112b8565b8360200151831061118157611180846002866020015102611227565b5b835180516020858301018481538186141561119d576001820183525b5050508390509392505050565b6111b26112b8565b846020015184830111156111d0576111cf85600286850102611227565b5b60006001836101000a03905085518386820101858319825116178152815185880111156111fd5784870182525b505085915050949350505050565b60008183111561121d57829050611221565b8190505b92915050565b60608260000151905061123a8383610dc7565b506112458382610f60565b50505050565b6040518060a0016040528060008019168152602001600073ffffffffffffffffffffffffffffffffffffffff16815260200160007bffffffffffffffffffffffffffffffffffffffffffffffffffffffff19168152602001600081526020016112b26112d2565b81525090565b604051806040016040528060608152602001600081525090565b60405180604001604052806060815260200160008152509056fe68747470733a2f2f6170692e66696e6167652e636f2e756b2f6c6173742f74726164652f73746f636b2f414d5a4e3f6170696b65793d4150495f4b4559383547304855515543453342494636505643385a33545737564237414d4f444b756e61626c6520746f207472616e73666572416e6443616c6c20746f206f7261636c65536f75726365206d75737420626520746865206f7261636c65206f66207468652072657175657374a264697066735822122009962be6fb5c6b9e5aeb679b32ca52e3981c4f1d728faa290790c4d935ae32a764736f6c63430006000033",
  "source": "pragma solidity ^0.6.0;\n\nimport \"@chainlink/contracts/src/v0.6/ChainlinkClient.sol\";\n\n\ncontract AmazonCurrency {\n    string  public constant name = \"Amazon Currency Token\";\n    string  public constant symbol = \"AMC\";\n    uint8 public constant decimals = 18;\n    string  private standard = \"Amazon Currency Token v1.0\";\n    uint256 public constant totalSupply = 100000000000000000000000000;\n    uint256 private leftSupply = 100000000000000000000000000;\n    uint256 private tokenPrice = 312000000000000; // conversione da un dollaro a eth\n    address payable private contractOwner;\n    \n    event Transfer( address indexed _from, address indexed _to, uint256 _value );\n    event Bought( address indexed _buyer, uint256 indexed amount );\n    \n    mapping(address => uint256) public balanceOf;\n    mapping(address => CustomerAccount) private customerBalance;\n    mapping(address => bool) private PaymentExecution;\n\n    struct CustomerAccount {\n        uint256 amount;\n    }\n    AmazonStock private AmazonStockToken;\n\n    constructor () public {\n        balanceOf[address(this)] = totalSupply;\n        contractOwner = msg.sender;\n        AmazonStockToken = new AmazonStock(address(this));\n    }\n    \n    function transfer(address _to, uint256 _value) private returns (bool success){\n        require(leftSupply >= _value);\n        leftSupply -= _value;\n        balanceOf[address(this)] -= _value;\n        balanceOf[_to] += _value;\n        emit Transfer(address(this), _to, _value);\n        return true;\n    }\n    function buyCurrency(uint256  _numberOfTokens) payable public {\n        require( msg.value == _numberOfTokens * tokenPrice );\n        _numberOfTokens = _numberOfTokens * 1000000000000000000;\n        transfer(msg.sender, _numberOfTokens);\n        contractOwner.send(msg.value);\n        emit Bought(msg.sender, msg.value);\n    }\n    function purchase(uint256 _numberOfTokens) public returns (bool){\n        require (PaymentExecution[msg.sender] == false, \"Withdraw you AMZNSTK!\");\n        _numberOfTokens = _numberOfTokens * 1000000000000000000;\n        require ( balanceOf[msg.sender] >= _numberOfTokens, \"you are trying to spend more AMZNCRY than you have!\");\n        balanceOf[msg.sender] -= _numberOfTokens;\n        balanceOf[address(this)] += _numberOfTokens;\n        customerBalance[msg.sender].amount = _numberOfTokens;\n        AmazonStockToken.requestToBuy(msg.sender);\n        PaymentExecution[msg.sender] = true;\n        emit Transfer(msg.sender, address(this), _numberOfTokens);\n        return true;\n    }\n    function conversionAmazonStock() public payable returns (bool) {\n        require (PaymentExecution[msg.sender] == true, \"You must buy some AMZNCRY and spent before request a stock conversion!\");\n        AmazonStockToken.buyStock(customerBalance[msg.sender].amount, msg.sender );\n        PaymentExecution[msg.sender] = false;\n        return true;\n    }\n\n    function getTokenPrice() public view returns (uint256) {\n        return tokenPrice;\n    }\n    function tokenConversionPrice(uint256 _tokenToBuy) public view returns (uint256) {\n        uint256 ethAmount;\n        ethAmount =  tokenPrice * _tokenToBuy;\n        return ethAmount;\n    }\n    function getApiAddressAmzn() public view returns (address){\n        return  AmazonStockToken.getApiAddress();\n    }\n    function getAmazonStockTokenAddress() public view returns (address) {\n        return AmazonStockToken.getContractAddressStock();\n    }\n}\n\ncontract AmazonStock {\n    string  public constant name = \"Amazon Stock Token\";\n    string  public constant symbol = \"AMS\";\n    uint8 public constant decimals = 18;\n    string  private standard = \"Ecommerce Token v1.0\";\n    uint256 public constant totalSupply = 100000000000000000000000000;\n    uint256 private leftSupply = 100000000000000000000000000;\n    uint256 private tokenPrice = 1040000000000000000; // conversione da un dollaro a eth di un'azione di amazon al 10 settembre 2021\n    address private contractOwner;\n\n    uint256 private index;\n    ApiData private AMAZON;\n    uint256 private deadline;\n    \n    struct AccountData{\n        uint256 priceToBuy;\n        bool request;\n        uint256 requestIndex;\n    }\n    \n\n    event Transfer( address indexed _from, address indexed _to, uint256 _value );\n    event Bought( address indexed _buyer, uint256 indexed amount );\n    \n    mapping(address => uint256) public balanceOf;\n    mapping(address => AccountData) public customerData;\n\n    // Crea il token e i valori che definiscono il contratto\n    constructor (address _owner) public {\n        index = 1;\n        balanceOf[address(this)] = totalSupply;\n        //contractOwner = 0x0cbdC5cFfE55D6E2dB656123607F78c80Ba86C3D;\n        contractOwner = _owner;\n        AMAZON = new ApiData();\n    }\n\n    function transfer(address _to, uint256 _value) private returns (bool success){\n        require(leftSupply >= _value);\n        leftSupply -= _value;\n        balanceOf[address(this)] -= _value;\n        balanceOf[_to] += _value;\n        emit Transfer(address(this), _to, _value);\n        return true;\n    }\n    function buyStock(uint256  _numberOfTokens, address _sender) public {\n        require( requestHasBeenMade(_sender), \"Your request is pending, please wait try later!\");\n        //contractOwner.send(msg.value);\n        customerData[_sender].priceToBuy = getAMZNprice(_sender);\n        customerData[_sender].request = true;\n        uint256 tokenFraction = percentage(_numberOfTokens, customerData[_sender].priceToBuy);\n        transfer(_sender, tokenFraction);\n    }\n    function requestToBuy(address _sender) public {\n        AMAZON.requestPrice();\n        customerData[_sender] = AccountData(0, false, index);\n        index += 1;\n    }\n    function percentage(uint256 _amount, uint256 _stockPrice) private returns (uint256) {\n        uint256 perc;\n        perc = _amount / _stockPrice;\n        return perc;\n    }\n\n    function requestHasBeenMade(address _requestID) private view returns (bool) {\n        uint256 indexID = customerData[_requestID].requestIndex;\n        return AMAZON.getBoolean(indexID);\n    }\n    function getAMZNprice(address _requestID) private view returns (uint256){\n        uint256 indexID = customerData[_requestID].requestIndex;\n        return AMAZON.getPriceAMZN(indexID);\n    }\n    function getApiAddress() public view returns (address){\n        return AMAZON.getContractAddress();\n    }\n    /*function getTknPrice() public view returns (uint256) {\n        return tokenPrice;\n    }*/\n    function getMoneyBalance() private view returns (uint256) {\n        return address(this).balance;\n    }\n    function getContractAddressStock() public view returns (address){\n        return address(this);\n    }\n}\n\ncontract ApiData is ChainlinkClient {\n    using Chainlink for Chainlink.Request;\n  \n    uint256 private price;\n    uint256 private requestIndex;\n    uint256 [10] private priceToBuy;\n    bool [10] private requests;\n\n    //uint256 private indiceRichiesta;\n    //uint256 [10] public whatPrice = [0];\n    //bool [10] private isRecieved = [false];\n    //uint256 public index = 0;\n\n    address private oracle;\n    bytes32 private jobId;\n    uint256 private fee;\n    address private buyerAddress;\n    \n    /**\n     * Network: Kovan\n     * Oracle Kovan: 0xc57B33452b4F7BB189bB5AfaE9cc4aBa1f7a4FD8 (Chainlink Devrel Node)\n     * Oracle Rinkeby: 0x7AFe1118Ea78C1eae84ca8feE5C65Bc76CcF879e\n     * Job ID Kovan: d5270d1c311941d0b08bead21fea7747\n     * job ID Rinkeby: 6d1bfe27e7034b1d87b5270556b17277\n     * Fee: 0.1 LINK\n     */\n    constructor() public {\n        setPublicChainlinkToken();\n        oracle = 0xc57B33452b4F7BB189bB5AfaE9cc4aBa1f7a4FD8;\n        jobId = \"d5270d1c311941d0b08bead21fea7747\";\n        fee = 0.1 * 10 ** 18; // (Varies by network and job)\n        requestIndex = 1;\n    }\n    \n    /**\n     * Create a Chainlink request to retrieve API response, find the target\n     * data, then multiply by 100 (to remove decimal places from data).\n     */\n    function requestPrice() public {\n        Chainlink.Request memory request = buildChainlinkRequest(jobId, address(this), this.fulfill.selector);\n        \n        // Set the URL to perform the GET request on\n        request.add(\"get\", string(abi.encodePacked(\"https://api.finage.co.uk/last/trade/stock/AMZN?apikey=API_KEY85G0HUQUCE3BIF6PVC8Z3TW7VB7AMODK\")));\n\n        request.add(\"path\", \"price\");\n        \n        // Multiply the result by 100 to remove decimals\n        int timesAmount = 100;\n        request.addInt(\"times\", timesAmount);\n        \n        // Sends the request\n        sendChainlinkRequestTo(oracle, request, fee);\n    }\n    \n    /**\n     * Receive the response in the form of uint256\n     */ \n    function fulfill(bytes32 _requestId, uint256 _price) public recordChainlinkFulfillment(_requestId) {\n        priceToBuy[requestIndex] = _price;\n        requests[requestIndex] = true;\n        requestIndex += 1;\n    }\n    \n    function getBoolean(uint256 _indiceRichiesta) public view returns (bool){\n         return requests[_indiceRichiesta];\n    }\n    function getPriceAMZN(uint256 _indiceRichiesta) public view returns (uint256){\n        return priceToBuy[_indiceRichiesta];\n    }\n    function withdrawLink() public {\n        LinkTokenInterface link = LinkTokenInterface(chainlinkTokenAddress());\n        require(link.transfer(msg.sender, link.balanceOf(address(this))), \"Unable to transfer\");\n    }\n    function getContractAddress() public view returns (address){\n        return address(this);\n    }\n    \n}\n\n",
  "sourcePath": "/Users/ocr/Desktop/TestETH/contracts/AmazonCurrency.sol",
  "compiler": {
    "name": "solc",
    "version": "0.6.0+commit.26b70077.Emscripten.clang"
  },
  "schemaVersion": "3.4.3",
  "updatedAt": "2021-09-16T16:47:02.478Z",
  "devdoc": {
    "methods": {}
  },
  "userdoc": {
    "methods": {}
  }
}