{
  "contractName": "EcommToken",
  "abi": [
    {
      "inputs": [],
      "stateMutability": "nonpayable",
      "type": "constructor"
    },
    {
      "anonymous": false,
      "inputs": [
        {
          "indexed": true,
          "internalType": "address",
          "name": "_owner",
          "type": "address"
        },
        {
          "indexed": true,
          "internalType": "address",
          "name": "_spender",
          "type": "address"
        },
        {
          "indexed": false,
          "internalType": "uint256",
          "name": "_value",
          "type": "uint256"
        }
      ],
      "name": "Approval",
      "type": "event"
    },
    {
      "anonymous": false,
      "inputs": [
        {
          "indexed": true,
          "internalType": "address",
          "name": "_buyer",
          "type": "address"
        },
        {
          "indexed": true,
          "internalType": "uint256",
          "name": "amount",
          "type": "uint256"
        }
      ],
      "name": "Bought",
      "type": "event"
    },
    {
      "anonymous": false,
      "inputs": [
        {
          "indexed": true,
          "internalType": "address",
          "name": "_from",
          "type": "address"
        },
        {
          "indexed": true,
          "internalType": "address",
          "name": "_to",
          "type": "address"
        },
        {
          "indexed": false,
          "internalType": "uint256",
          "name": "_value",
          "type": "uint256"
        }
      ],
      "name": "Transfer",
      "type": "event"
    },
    {
      "inputs": [
        {
          "internalType": "address",
          "name": "",
          "type": "address"
        }
      ],
      "name": "balanceOf",
      "outputs": [
        {
          "internalType": "uint256",
          "name": "",
          "type": "uint256"
        }
      ],
      "stateMutability": "view",
      "type": "function",
      "constant": true
    },
    {
      "inputs": [],
      "name": "decimals",
      "outputs": [
        {
          "internalType": "uint8",
          "name": "",
          "type": "uint8"
        }
      ],
      "stateMutability": "view",
      "type": "function",
      "constant": true
    },
    {
      "inputs": [],
      "name": "name",
      "outputs": [
        {
          "internalType": "string",
          "name": "",
          "type": "string"
        }
      ],
      "stateMutability": "view",
      "type": "function",
      "constant": true
    },
    {
      "inputs": [],
      "name": "symbol",
      "outputs": [
        {
          "internalType": "string",
          "name": "",
          "type": "string"
        }
      ],
      "stateMutability": "view",
      "type": "function",
      "constant": true
    },
    {
      "inputs": [],
      "name": "requestToBuy",
      "outputs": [],
      "stateMutability": "nonpayable",
      "type": "function"
    },
    {
      "inputs": [
        {
          "internalType": "uint256",
          "name": "_numberOfTokens",
          "type": "uint256"
        }
      ],
      "name": "buy",
      "outputs": [],
      "stateMutability": "payable",
      "type": "function",
      "payable": true
    },
    {
      "inputs": [
        {
          "internalType": "uint256",
          "name": "_tokenToBuy",
          "type": "uint256"
        }
      ],
      "name": "requestToken",
      "outputs": [
        {
          "internalType": "uint256",
          "name": "",
          "type": "uint256"
        }
      ],
      "stateMutability": "pure",
      "type": "function",
      "constant": true
    },
    {
      "inputs": [],
      "name": "getAMZNprice",
      "outputs": [
        {
          "internalType": "uint256",
          "name": "",
          "type": "uint256"
        }
      ],
      "stateMutability": "view",
      "type": "function",
      "constant": true
    },
    {
      "inputs": [
        {
          "internalType": "address",
          "name": "_AmazonContract",
          "type": "address"
        }
      ],
      "name": "setAMZNaddress",
      "outputs": [],
      "stateMutability": "nonpayable",
      "type": "function"
    },
    {
      "inputs": [],
      "name": "getTknPrice",
      "outputs": [
        {
          "internalType": "uint256",
          "name": "",
          "type": "uint256"
        }
      ],
      "stateMutability": "view",
      "type": "function",
      "constant": true
    },
    {
      "inputs": [],
      "name": "getMoneyBalance",
      "outputs": [
        {
          "internalType": "uint256",
          "name": "",
          "type": "uint256"
        }
      ],
      "stateMutability": "view",
      "type": "function",
      "constant": true
    },
    {
      "inputs": [],
      "name": "getApiAddress",
      "outputs": [
        {
          "internalType": "address",
          "name": "",
          "type": "address"
        }
      ],
      "stateMutability": "view",
      "type": "function",
      "constant": true
    }
  ],
  "bytecode": "0x60806040526040518060400160405280601481526020017f45636f6d6d6572636520546f6b656e2076312e300000000000000000000000008152506000908051906020019061004f9291906100d3565b50678ac7230489e80000600155678ac7230489e8000060025566011bc3292b800060035534801561007f57600080fd5b506000601a81905550600154601c60003073ffffffffffffffffffffffffffffffffffffffff1673ffffffffffffffffffffffffffffffffffffffff16815260200190815260200160002081905550610178565b828054600181600116156101000203166002900490600052602060002090601f016020900481019282601f1061011457805160ff1916838001178555610142565b82800160010185558215610142579182015b82811115610141578251825591602001919060010190610126565b5b50905061014f9190610153565b5090565b61017591905b80821115610171576000816000905550600101610159565b5090565b90565b6109f2806101876000396000f3fe6080604052600436106100a75760003560e01c806381020ae51161006457806381020ae51461028f57806395d89b41146102ba578063c96050c01461034a578063ce985b5014610375578063d96a094a146103c6578063e2f59ec9146103f4576100a7565b806306fdde03146100ac5780631d4a958e1461013c5780632b4df9d314610193578063313ce567146101e257806360e938b51461021357806370a082311461022a575b600080fd5b3480156100b857600080fd5b506100c161041f565b6040518080602001828103825283818151815260200191508051906020019080838360005b838110156101015780820151818401526020810190506100e6565b50505050905090810190601f16801561012e5780820380516001836020036101000a031916815260200191505b509250505060405180910390f35b34801561014857600080fd5b50610151610458565b604051808273ffffffffffffffffffffffffffffffffffffffff1673ffffffffffffffffffffffffffffffffffffffff16815260200191505060405180910390f35b34801561019f57600080fd5b506101cc600480360360208110156101b657600080fd5b810190808035906020019092919050505061050d565b6040518082815260200191505060405180910390f35b3480156101ee57600080fd5b506101f7610534565b604051808260ff1660ff16815260200191505060405180910390f35b34801561021f57600080fd5b50610228610539565b005b34801561023657600080fd5b506102796004803603602081101561024d57600080fd5b81019080803573ffffffffffffffffffffffffffffffffffffffff1690602001909291905050506105e7565b6040518082815260200191505060405180910390f35b34801561029b57600080fd5b506102a46105ff565b6040518082815260200191505060405180910390f35b3480156102c657600080fd5b506102cf6106b4565b6040518080602001828103825283818151815260200191508051906020019080838360005b8381101561030f5780820151818401526020810190506102f4565b50505050905090810190601f16801561033c5780820380516001836020036101000a031916815260200191505b509250505060405180910390f35b34801561035657600080fd5b5061035f6106ed565b6040518082815260200191505060405180910390f35b34801561038157600080fd5b506103c46004803603602081101561039857600080fd5b81019080803573ffffffffffffffffffffffffffffffffffffffff1690602001909291905050506106f7565b005b6103f2600480360360208110156103dc57600080fd5b810190808035906020019092919050505061073b565b005b34801561040057600080fd5b5061040961086c565b6040518082815260200191505060405180910390f35b6040518060400160405280600f81526020017f45636f6d6d6572636520546f6b656e000000000000000000000000000000000081525081565b600080600560009054906101000a900473ffffffffffffffffffffffffffffffffffffffff16905060008173ffffffffffffffffffffffffffffffffffffffff166332a2c5d06040518163ffffffff1660e01b815260040160206040518083038186803b1580156104c857600080fd5b505afa1580156104dc573d6000803e3d6000fd5b505050506040513d60208110156104f257600080fd5b81019080805190602001909291905050509050809250505090565b600080670de0b6b3a764000083029050610c80818161052857fe5b04905080915050919050565b601281565b6000600560009054906101000a900473ffffffffffffffffffffffffffffffffffffffff1690508073ffffffffffffffffffffffffffffffffffffffff16631604f9ea6040518163ffffffff1660e01b8152600401602060405180830381600087803b1580156105a857600080fd5b505af11580156105bc573d6000803e3d6000fd5b505050506040513d60208110156105d257600080fd5b81019080805190602001909291905050505050565b601c6020528060005260406000206000915090505481565b600080600560009054906101000a900473ffffffffffffffffffffffffffffffffffffffff16905060008173ffffffffffffffffffffffffffffffffffffffff16637c68380e6040518163ffffffff1660e01b815260040160206040518083038186803b15801561066f57600080fd5b505afa158015610683573d6000803e3d6000fd5b505050506040513d602081101561069957600080fd5b81019080805190602001909291905050509050809250505090565b6040518060400160405280600481526020017f4543544b0000000000000000000000000000000000000000000000000000000081525081565b6000600354905090565b80600560006101000a81548173ffffffffffffffffffffffffffffffffffffffff021916908373ffffffffffffffffffffffffffffffffffffffff16021790555050565b60035481023414610797576040517f08c379a00000000000000000000000000000000000000000000000000000000081526004018080602001828103825260278152602001806109966027913960400191505060405180910390fd5b6000341161080d576040517f08c379a000000000000000000000000000000000000000000000000000000000815260040180806020018281038252601b8152602001807f596f75206e65656420746f2073656e6420736f6d65204574686572000000000081525060200191505060405180910390fd5b670de0b6b3a7640000810290506108243382610874565b50343373ffffffffffffffffffffffffffffffffffffffff167fc55650ccda1011e1cdc769b1fbf546ebb8c97800b6072b49e06cd560305b1d6760405160405180910390a350565b600047905090565b600081600254101561088557600080fd5b8160026000828254039250508190555081601c60003073ffffffffffffffffffffffffffffffffffffffff1673ffffffffffffffffffffffffffffffffffffffff1681526020019081526020016000208190555081601c60008573ffffffffffffffffffffffffffffffffffffffff1673ffffffffffffffffffffffffffffffffffffffff168152602001908152602001600020600082825401925050819055508273ffffffffffffffffffffffffffffffffffffffff163073ffffffffffffffffffffffffffffffffffffffff167fddf252ad1be2c89b69c2b068fc378daa952ba7f163c4a11628f55a4df523b3ef846040518082815260200191505060405180910390a3600190509291505056fe506c6561736520496e736572742074686520726967687420616d6f756e74206f66204574686572a264697066735822122031384616ceea7209f2e7c7760437bcd5dab84b90055e6f05862c9e05a8b7a7e164736f6c63430006000033",
  "source": "pragma solidity ^0.6.0;\n\nimport \"./PriceAMZN.sol\";\n\ncontract EcommToken {\n    string  public constant name = \"Ecommerce Token\";\n    string  public constant symbol = \"ECTK\";\n    uint8 public constant decimals = 18;\n    string  private standard = \"Ecommerce Token v1.0\";\n    uint256 private totalSupply = 10000000000000000000;\n    uint256 private leftSupply = 10000000000000000000;\n    uint256 private tokenPrice = 312000000000000; // conversione da un dollaro a eth\n    address payable private contractOwner;\n    //address _AMZNChainLink\n    //PriceAMZN private AMAZON;\n    address private AmazonContract;\n    \n    address [10] private whoBuy;\n    uint256 [10] private whatPrice;\n    uint256 private index;\n    uint256 private price;\n\n    event Transfer( address indexed _from, address indexed _to, uint256 _value );\n    event Approval( address indexed _owner, address indexed _spender, uint256 _value );\n    event Bought( address indexed _buyer, uint256 indexed amount );\n    \n    mapping(address => uint256) public balanceOf;\n    mapping(address => mapping(address => uint256)) private allowance;\n\n\n    // Crea il token e assegna alle variabili \"name\", \"symbol\" e \"totalSupply\"\n    // i loro valori che definiscono il contratto\n    constructor () public {\n        index = 0;\n        balanceOf[address(this)] = totalSupply;\n        //contractOwner = 0x0cbdC5cFfE55D6E2dB656123607F78c80Ba86C3D;\n    }\n\n    // Funzione per trasferire i token a un indirizzo\n    // è richiesto solo che il balance del mittente sia superiore a quanto vuole trasferire\n    function transfer(address _to, uint256 _value) private returns (bool success){\n        \n        require(leftSupply >= _value);\n        //whoPaid[msg.sender] = msg.value;\n        //contractOwner.send(msg.value);\n        leftSupply -= _value;\n        balanceOf[address(this)] = _value;\n        balanceOf[_to] += _value;\n        emit Transfer(address(this), _to, _value);\n        return true;\n    }\n\n    function requestToBuy() public {\n        PriceAMZN AMAZON = PriceAMZN(AmazonContract);\n        AMAZON.requestPrice();\n    }\n    \n    function buy(uint256  _numberOfTokens) payable public {\n        require( msg.value == _numberOfTokens * tokenPrice, \"Please Insert the right amount of Ether\" );\n        //uint256 amountTobuy = msg.value;\n        require(msg.value > 0, \"You need to send some Ether\");\n        //require(amountTobuy <= dexBalance, \"Not enough tokens in the reserve\");\n        _numberOfTokens = _numberOfTokens * 1000000000000000000;\n        transfer(msg.sender, _numberOfTokens);\n        //contractOwner.send(msg.value);\n        //PriceAMZN AMAZON = PriceAMZN(AmazonContract);\n        //AMAZON.requestPrice();\n        emit Bought(msg.sender, msg.value);\n        //price = getAMZNprice();\n        //whoBuy[index] = msg.sender;\n        //whatPrice[index] = price;\n        //index += 1;\n    }\n    \n    \n    function requestToken(uint256 _tokenToBuy) public pure returns (uint256) {\n        uint256 ethAmount;\n        ethAmount = _tokenToBuy * 1000000000000000000;\n        ethAmount = ethAmount / 3200;\n        return ethAmount;\n    }\n    \n    // Approva il trasferimento a un inidirizzo \"xy\"\n    function approve(address _spender, uint256 _value) private returns (bool success) {\n        allowance[msg.sender][_spender] = _value;\n        emit Approval(msg.sender, _spender, _value);\n        return true;\n    }\n\n    // Funzioni che servono a \"delegre\" il trasferimento dei token\n    function transferFrom(address _from, address _to, uint256 _value) private returns (bool success) {\n        require(_value <= balanceOf[_from]);\n        require(_value <= allowance[_from][msg.sender]);\n\n        balanceOf[_from] -= _value;\n        balanceOf[_to] += _value;\n\n        allowance[_from][msg.sender] -= _value;\n\n        emit Transfer(_from, _to, _value);\n\n        return true;\n    }\n    \n    function getAMZNprice() public view returns (uint256){\n        PriceAMZN AMAZON = PriceAMZN(AmazonContract);\n        uint256 pr = AMAZON.getPriceAMZN();\n        return pr;\n    }\n    \n    function setAMZNaddress(address _AmazonContract) public {\n        AmazonContract = _AmazonContract;\n    }\n    \n    function getTknPrice() public view returns (uint256) {\n        return tokenPrice;\n    }\n    function getMoneyBalance() public view returns (uint256) {\n        return address(this).balance;\n    }\n\n    function getApiAddress() public view returns (address){\n        PriceAMZN AMAZON = PriceAMZN(AmazonContract);\n        address _addressApi = AMAZON.getContractAddress();\n        return _addressApi;\n    }\n}\n",
  "sourcePath": "/Users/ocr/Desktop/TestETH/contracts/EcommToken.sol",
  "compiler": {
    "name": "solc",
    "version": "0.6.0+commit.26b70077.Emscripten.clang"
  },
  "schemaVersion": "3.4.3",
  "updatedAt": "2021-09-02T15:29:17.491Z",
  "networkType": "ethereum",
  "devdoc": {
    "methods": {}
  },
  "userdoc": {
    "methods": {}
  }
}