{
  "contractName": "EcommToken",
  "abi": [
    {
      "inputs": [],
      "stateMutability": "nonpayable",
      "type": "constructor"
    },
    {
      "anonymous": false,
      "inputs": [
        {
          "indexed": true,
          "internalType": "address",
          "name": "_owner",
          "type": "address"
        },
        {
          "indexed": true,
          "internalType": "address",
          "name": "_spender",
          "type": "address"
        },
        {
          "indexed": false,
          "internalType": "uint256",
          "name": "_value",
          "type": "uint256"
        }
      ],
      "name": "Approval",
      "type": "event"
    },
    {
      "anonymous": false,
      "inputs": [
        {
          "indexed": true,
          "internalType": "address",
          "name": "_buyer",
          "type": "address"
        },
        {
          "indexed": true,
          "internalType": "uint256",
          "name": "amount",
          "type": "uint256"
        }
      ],
      "name": "Bought",
      "type": "event"
    },
    {
      "anonymous": false,
      "inputs": [
        {
          "indexed": true,
          "internalType": "address",
          "name": "_from",
          "type": "address"
        },
        {
          "indexed": true,
          "internalType": "address",
          "name": "_to",
          "type": "address"
        },
        {
          "indexed": false,
          "internalType": "uint256",
          "name": "_value",
          "type": "uint256"
        }
      ],
      "name": "Transfer",
      "type": "event"
    },
    {
      "inputs": [],
      "name": "decimals",
      "outputs": [
        {
          "internalType": "uint8",
          "name": "",
          "type": "uint8"
        }
      ],
      "stateMutability": "view",
      "type": "function"
    },
    {
      "inputs": [],
      "name": "name",
      "outputs": [
        {
          "internalType": "string",
          "name": "",
          "type": "string"
        }
      ],
      "stateMutability": "view",
      "type": "function"
    },
    {
      "inputs": [],
      "name": "symbol",
      "outputs": [
        {
          "internalType": "string",
          "name": "",
          "type": "string"
        }
      ],
      "stateMutability": "view",
      "type": "function"
    },
    {
      "inputs": [],
      "name": "requestToBuy",
      "outputs": [],
      "stateMutability": "nonpayable",
      "type": "function"
    },
    {
      "inputs": [
        {
          "internalType": "uint256",
          "name": "_numberOfTokens",
          "type": "uint256"
        }
      ],
      "name": "buy",
      "outputs": [],
      "stateMutability": "payable",
      "type": "function"
    },
    {
      "inputs": [
        {
          "internalType": "uint256",
          "name": "_tokenToBuy",
          "type": "uint256"
        }
      ],
      "name": "requestTokenPriceToBuy",
      "outputs": [
        {
          "internalType": "uint256",
          "name": "",
          "type": "uint256"
        }
      ],
      "stateMutability": "view",
      "type": "function"
    },
    {
      "inputs": [],
      "name": "getAMZNprice",
      "outputs": [
        {
          "internalType": "uint256",
          "name": "",
          "type": "uint256"
        }
      ],
      "stateMutability": "view",
      "type": "function"
    },
    {
      "inputs": [
        {
          "internalType": "address",
          "name": "_AmazonContract",
          "type": "address"
        }
      ],
      "name": "setAMZNaddress",
      "outputs": [],
      "stateMutability": "nonpayable",
      "type": "function"
    },
    {
      "inputs": [],
      "name": "getTknPrice",
      "outputs": [
        {
          "internalType": "uint256",
          "name": "",
          "type": "uint256"
        }
      ],
      "stateMutability": "view",
      "type": "function"
    },
    {
      "inputs": [],
      "name": "getMoneyBalance",
      "outputs": [
        {
          "internalType": "uint256",
          "name": "",
          "type": "uint256"
        }
      ],
      "stateMutability": "view",
      "type": "function"
    },
    {
      "inputs": [],
      "name": "getApiAddress",
      "outputs": [
        {
          "internalType": "address",
          "name": "",
          "type": "address"
        }
      ],
      "stateMutability": "view",
      "type": "function"
    }
  ],
  "bytecode": "0x60806040526040518060400160405280601481526020017f45636f6d6d6572636520546f6b656e2076312e300000000000000000000000008152506000908051906020019061004f92919061011a565b506a52b7d2dcc80cd2e40000006001556a52b7d2dcc80cd2e400000060025566011bc3292b800060035534801561008557600080fd5b506000601a81905550600154601c60003073ffffffffffffffffffffffffffffffffffffffff1673ffffffffffffffffffffffffffffffffffffffff1681526020019081526020016000208190555033600460006101000a81548173ffffffffffffffffffffffffffffffffffffffff021916908373ffffffffffffffffffffffffffffffffffffffff1602179055506101bf565b828054600181600116156101000203166002900490600052602060002090601f016020900481019282601f1061015b57805160ff1916838001178555610189565b82800160010185558215610189579182015b8281111561018857825182559160200191906001019061016d565b5b509050610196919061019a565b5090565b6101bc91905b808211156101b85760008160009055506001016101a0565b5090565b90565b610bca806101ce6000396000f3fe60806040526004361061009c5760003560e01c806381020ae51161006457806381020ae51461021f57806395d89b411461024a578063c96050c0146102da578063ce985b5014610305578063d96a094a14610356578063e2f59ec9146103845761009c565b806306fdde03146100a15780631d4a958e14610131578063313ce567146101885780634feb28e1146101b957806360e938b514610208575b600080fd5b3480156100ad57600080fd5b506100b66103af565b6040518080602001828103825283818151815260200191508051906020019080838360005b838110156100f65780820151818401526020810190506100db565b50505050905090810190601f1680156101235780820380516001836020036101000a031916815260200191505b509250505060405180910390f35b34801561013d57600080fd5b506101466103e8565b604051808273ffffffffffffffffffffffffffffffffffffffff1673ffffffffffffffffffffffffffffffffffffffff16815260200191505060405180910390f35b34801561019457600080fd5b5061019d610561565b604051808260ff1660ff16815260200191505060405180910390f35b3480156101c557600080fd5b506101f2600480360360208110156101dc57600080fd5b8101908080359060200190929190505050610566565b6040518082815260200191505060405180910390f35b34801561021457600080fd5b5061021d610579565b005b34801561022b57600080fd5b50610234610603565b6040518082815260200191505060405180910390f35b34801561025657600080fd5b5061025f61077c565b6040518080602001828103825283818151815260200191508051906020019080838360005b8381101561029f578082015181840152602081019050610284565b50505050905090810190601f1680156102cc5780820380516001836020036101000a031916815260200191505b509250505060405180910390f35b3480156102e657600080fd5b506102ef6107b5565b6040518082815260200191505060405180910390f35b34801561031157600080fd5b506103546004803603602081101561032857600080fd5b81019080803573ffffffffffffffffffffffffffffffffffffffff1690602001909291905050506107bf565b005b6103826004803603602081101561036c57600080fd5b81019080803590602001909291905050506108c6565b005b34801561039057600080fd5b50610399610981565b6040518082815260200191505060405180910390f35b6040518060400160405280600f81526020017f45636f6d6d6572636520546f6b656e000000000000000000000000000000000081525081565b6000600460009054906101000a900473ffffffffffffffffffffffffffffffffffffffff1673ffffffffffffffffffffffffffffffffffffffff163373ffffffffffffffffffffffffffffffffffffffff16146104ad576040517f08c379a000000000000000000000000000000000000000000000000000000000815260040180806020018281038252601f8152602001807f596f7520617265204e4f542074686520436f6e7472616374206f776e6572210081525060200191505060405180910390fd5b6000600560009054906101000a900473ffffffffffffffffffffffffffffffffffffffff16905060008173ffffffffffffffffffffffffffffffffffffffff166332a2c5d06040518163ffffffff1660e01b815260040160206040518083038186803b15801561051c57600080fd5b505afa158015610530573d6000803e3d6000fd5b505050506040513d602081101561054657600080fd5b81019080805190602001909291905050509050809250505090565b601281565b6000808260035402905080915050919050565b6000600560009054906101000a900473ffffffffffffffffffffffffffffffffffffffff1690508073ffffffffffffffffffffffffffffffffffffffff16631604f9ea6040518163ffffffff1660e01b8152600401600060405180830381600087803b1580156105e857600080fd5b505af11580156105fc573d6000803e3d6000fd5b5050505050565b6000600460009054906101000a900473ffffffffffffffffffffffffffffffffffffffff1673ffffffffffffffffffffffffffffffffffffffff163373ffffffffffffffffffffffffffffffffffffffff16146106c8576040517f08c379a000000000000000000000000000000000000000000000000000000000815260040180806020018281038252601f8152602001807f596f7520617265204e4f542074686520436f6e7472616374206f776e6572210081525060200191505060405180910390fd5b6000600560009054906101000a900473ffffffffffffffffffffffffffffffffffffffff16905060008173ffffffffffffffffffffffffffffffffffffffff16637c68380e6040518163ffffffff1660e01b815260040160206040518083038186803b15801561073757600080fd5b505afa15801561074b573d6000803e3d6000fd5b505050506040513d602081101561076157600080fd5b81019080805190602001909291905050509050809250505090565b6040518060400160405280600481526020017f4543544b0000000000000000000000000000000000000000000000000000000081525081565b6000600354905090565b600460009054906101000a900473ffffffffffffffffffffffffffffffffffffffff1673ffffffffffffffffffffffffffffffffffffffff163373ffffffffffffffffffffffffffffffffffffffff1614610882576040517f08c379a000000000000000000000000000000000000000000000000000000000815260040180806020018281038252601f8152602001807f596f7520617265204e4f542074686520436f6e7472616374206f776e6572210081525060200191505060405180910390fd5b80600560006101000a81548173ffffffffffffffffffffffffffffffffffffffff021916908373ffffffffffffffffffffffffffffffffffffffff16021790555050565b60035481023414610922576040517f08c379a0000000000000000000000000000000000000000000000000000000008152600401808060200182810382526027815260200180610b6e6027913960400191505060405180910390fd5b670de0b6b3a7640000810290506109393382610a4c565b50343373ffffffffffffffffffffffffffffffffffffffff167fc55650ccda1011e1cdc769b1fbf546ebb8c97800b6072b49e06cd560305b1d6760405160405180910390a350565b6000600460009054906101000a900473ffffffffffffffffffffffffffffffffffffffff1673ffffffffffffffffffffffffffffffffffffffff163373ffffffffffffffffffffffffffffffffffffffff1614610a46576040517f08c379a000000000000000000000000000000000000000000000000000000000815260040180806020018281038252601f8152602001807f596f7520617265204e4f542074686520436f6e7472616374206f776e6572210081525060200191505060405180910390fd5b47905090565b6000816002541015610a5d57600080fd5b8160026000828254039250508190555081601c60003073ffffffffffffffffffffffffffffffffffffffff1673ffffffffffffffffffffffffffffffffffffffff1681526020019081526020016000208190555081601c60008573ffffffffffffffffffffffffffffffffffffffff1673ffffffffffffffffffffffffffffffffffffffff168152602001908152602001600020600082825401925050819055508273ffffffffffffffffffffffffffffffffffffffff163073ffffffffffffffffffffffffffffffffffffffff167fddf252ad1be2c89b69c2b068fc378daa952ba7f163c4a11628f55a4df523b3ef846040518082815260200191505060405180910390a3600190509291505056fe506c6561736520496e736572742074686520726967687420616d6f756e74206f66204574686572a26469706673582212203be9448d47dd3bbf7907495458f07a5dacf9f894baa21b420840b560ab9a848064736f6c63430006000033",
  "source": "pragma solidity ^0.6.0;\n\nimport \"./PriceAMZN.sol\";\n\ncontract EcommToken {\n    string  public constant name = \"Ecommerce Token\";\n    string  public constant symbol = \"ECTK\";\n    uint8 public constant decimals = 18;\n    string  private standard = \"Ecommerce Token v1.0\";\n    uint256 private totalSupply = 100000000000000000000000000; // 100 milioni di token disponibili\n    uint256 private leftSupply = 100000000000000000000000000;\n    uint256 private tokenPrice = 312000000000000; // conversione da un dollaro a eth\n    address payable private contractOwner;\n    //address _AMZNChainLink\n    //PriceAMZN private AMAZON;\n    address private AmazonContract;\n    \n    address [10] private whoBuy;\n    uint256 [10] private whatPrice;\n    uint256 private index;\n    uint256 private price;\n\n    event Transfer( address indexed _from, address indexed _to, uint256 _value );\n    event Approval( address indexed _owner, address indexed _spender, uint256 _value );\n    event Bought( address indexed _buyer, uint256 indexed amount );\n    \n    mapping(address => uint256) private balanceOf;\n    mapping(address => mapping(address => uint256)) private allowance;\n    \n\n    // Crea il token e assegna alle variabili \"name\", \"symbol\" e \"totalSupply\"\n    // i loro valori che definiscono il contratto\n    constructor () public {\n        index = 0;\n        balanceOf[address(this)] = totalSupply;\n        contractOwner = msg.sender;\n    }\n\n    // Funzione per trasferire i token a un indirizzo\n    // è richiesto solo che il balance del mittente sia superiore a quanto vuole trasferire\n    function transfer(address _to, uint256 _value) private returns (bool success){   \n        require(leftSupply >= _value);\n        leftSupply -= _value;\n        balanceOf[address(this)] = _value;\n        balanceOf[_to] += _value;\n        emit Transfer(address(this), _to, _value);\n        return true;\n    }\n\n    function requestToBuy() public {\n        PriceAMZN AMAZON = PriceAMZN(AmazonContract);\n        AMAZON.requestPrice();\n    }\n    \n    function buy(uint256  _numberOfTokens) payable public {\n        require( msg.value == _numberOfTokens * tokenPrice, \"Please Insert the right amount of Ether\" );\n        _numberOfTokens = _numberOfTokens * 1000000000000000000;\n        transfer(msg.sender, _numberOfTokens);\n        emit Bought(msg.sender, msg.value);\n        //contractOwner.send(msg.value);\n        //price = getAMZNprice();\n        //whoBuy[index] = msg.sender;\n        //whatPrice[index] = price;\n        //index += 1;\n    }\n    \n    \n    function requestTokenPriceToBuy(uint256 _tokenToBuy) public view returns (uint256) {\n        uint256 ethAmount;\n        //ethAmount = _tokenToBuy * 1000000000000000000;\n        //ethAmount = ethAmount / 3200;\n        ethAmount =  tokenPrice * _tokenToBuy;\n        return ethAmount;\n    }\n    \n    // Approva il trasferimento a un inidirizzo \"xy\"\n    function approve(address _spender, uint256 _value) private returns (bool success) {\n        allowance[msg.sender][_spender] = _value;\n        emit Approval(msg.sender, _spender, _value);\n        return true;\n    }\n\n    // Funzioni che servono a \"delegre\" il trasferimento dei token\n    function transferFrom(address _from, address _to, uint256 _value) private returns (bool success) {\n        require(_value <= balanceOf[_from]);\n        require(_value <= allowance[_from][msg.sender]);\n\n        balanceOf[_from] -= _value;\n        balanceOf[_to] += _value;\n\n        allowance[_from][msg.sender] -= _value;\n\n        emit Transfer(_from, _to, _value);\n\n        return true;\n    }\n    \n    function getAMZNprice() public view returns (uint256){\n        require(msg.sender == contractOwner, \"You are NOT the Contract owner!\");\n        PriceAMZN AMAZON = PriceAMZN(AmazonContract);\n        uint256 pr = AMAZON.getPriceAMZN();\n        return pr;\n    }\n    \n    function setAMZNaddress(address _AmazonContract) public {\n        require(msg.sender == contractOwner, \"You are NOT the Contract owner!\");\n        AmazonContract = _AmazonContract;\n    }\n    \n    function getTknPrice() public view returns (uint256) {\n        return tokenPrice;\n    }\n\n    function getMoneyBalance() public view returns (uint256) {\n        require(msg.sender == contractOwner, \"You are NOT the Contract owner!\");\n        return address(this).balance;\n    }\n\n    function getApiAddress() public view returns (address){\n        require(msg.sender == contractOwner, \"You are NOT the Contract owner!\");\n        PriceAMZN AMAZON = PriceAMZN(AmazonContract);\n        address _addressApi = AMAZON.getContractAddress();\n        return _addressApi;\n    }\n}\n",
  "sourcePath": "/Users/ocr/Desktop/TestETH/contracts/EcommToken.sol",
  "compiler": {
    "name": "solc",
    "version": "0.6.0+commit.26b70077.Emscripten.clang"
  },
  "schemaVersion": "3.4.3",
  "updatedAt": "2021-09-02T17:20:09.460Z",
  "devdoc": {
    "methods": {}
  },
  "userdoc": {
    "methods": {}
  }
}