{
  "contractName": "PriceAMZN",
  "abi": [
    {
      "inputs": [],
      "stateMutability": "nonpayable",
      "type": "constructor"
    },
    {
      "anonymous": false,
      "inputs": [
        {
          "indexed": true,
          "internalType": "bytes32",
          "name": "id",
          "type": "bytes32"
        }
      ],
      "name": "ChainlinkCancelled",
      "type": "event"
    },
    {
      "anonymous": false,
      "inputs": [
        {
          "indexed": true,
          "internalType": "bytes32",
          "name": "id",
          "type": "bytes32"
        }
      ],
      "name": "ChainlinkFulfilled",
      "type": "event"
    },
    {
      "anonymous": false,
      "inputs": [
        {
          "indexed": true,
          "internalType": "bytes32",
          "name": "id",
          "type": "bytes32"
        }
      ],
      "name": "ChainlinkRequested",
      "type": "event"
    },
    {
      "inputs": [],
      "name": "requestPrice",
      "outputs": [
        {
          "internalType": "uint256",
          "name": "",
          "type": "uint256"
        }
      ],
      "stateMutability": "nonpayable",
      "type": "function"
    },
    {
      "inputs": [
        {
          "internalType": "bytes32",
          "name": "_requestId",
          "type": "bytes32"
        },
        {
          "internalType": "uint256",
          "name": "_price",
          "type": "uint256"
        }
      ],
      "name": "fulfill",
      "outputs": [],
      "stateMutability": "nonpayable",
      "type": "function"
    },
    {
      "inputs": [],
      "name": "withdrawLink",
      "outputs": [],
      "stateMutability": "nonpayable",
      "type": "function"
    },
    {
      "inputs": [],
      "name": "getContractAddress",
      "outputs": [
        {
          "internalType": "address",
          "name": "",
          "type": "address"
        }
      ],
      "stateMutability": "view",
      "type": "function"
    },
    {
      "inputs": [],
      "name": "getPriceAMZN",
      "outputs": [
        {
          "internalType": "uint256",
          "name": "",
          "type": "uint256"
        }
      ],
      "stateMutability": "view",
      "type": "function"
    }
  ],
  "bytecode": "0x6080604052600160045534801561001557600080fd5b506100246100b460201b60201c565b73c57b33452b4f7bb189bb5afae9cc4aba1f7a4fd8600760006101000a81548173ffffffffffffffffffffffffffffffffffffffff021916908373ffffffffffffffffffffffffffffffffffffffff1602179055507f643532373064316333313139343164306230386265616432316665613737343760088190555067016345785d8a000060098190555061019d565b61015773c89bd4e1632d3a43cb03aaad5262cbe4038bc57173ffffffffffffffffffffffffffffffffffffffff166338cc48316040518163ffffffff1660e01b815260040160206040518083038186803b15801561011157600080fd5b505afa158015610125573d6000803e3d6000fd5b505050506040513d602081101561013b57600080fd5b810190808051906020019092919050505061015960201b60201c565b565b80600260006101000a81548173ffffffffffffffffffffffffffffffffffffffff021916908373ffffffffffffffffffffffffffffffffffffffff16021790555050565b6112e8806101ac6000396000f3fe608060405234801561001057600080fd5b50600436106100575760003560e01c80631604f9ea1461005c57806332a2c5d01461007a5780634357855e146100c45780637c68380e146100fc5780638dc654a21461011a575b600080fd5b610064610124565b6040518082815260200191505060405180910390f35b6100826102b9565b604051808273ffffffffffffffffffffffffffffffffffffffff1673ffffffffffffffffffffffffffffffffffffffff16815260200191505060405180910390f35b6100fa600480360360408110156100da57600080fd5b8101908080359060200190929190803590602001909291905050506102c1565b005b6101046103e8565b6040518082815260200191505060405180910390f35b6101226103f2565b005b600061012e611169565b61014260085430634357855e60e01b6105ec565b90506101b06040518060400160405280600381526020017f6765740000000000000000000000000000000000000000000000000000000000815250604051602001808061120b605d9139605d0190506040516020818303038152906040528361061d9092919063ffffffff16565b61022f6040518060400160405280600481526020017f70617468000000000000000000000000000000000000000000000000000000008152506040518060400160405280600581526020017f70726963650000000000000000000000000000000000000000000000000000008152508361061d9092919063ffffffff16565b60006064905061027f6040518060400160405280600581526020017f74696d657300000000000000000000000000000000000000000000000000000081525082846106509092919063ffffffff16565b6102ae600760009054906101000a900473ffffffffffffffffffffffffffffffffffffffff1683600954610683565b506006549250505090565b600030905090565b816005600082815260200190815260200160002060009054906101000a900473ffffffffffffffffffffffffffffffffffffffff1673ffffffffffffffffffffffffffffffffffffffff163373ffffffffffffffffffffffffffffffffffffffff1614610379576040517f08c379a000000000000000000000000000000000000000000000000000000000815260040180806020018281038252602881526020018061128b6028913960400191505060405180910390fd5b6005600082815260200190815260200160002060006101000a81549073ffffffffffffffffffffffffffffffffffffffff0219169055807f7cc135e0cebb02c3480ae5d74d377283180a2601f8f644edf7987b009316c63a60405160405180910390a281600681905550505050565b6000600654905090565b60006103fc61093b565b90508073ffffffffffffffffffffffffffffffffffffffff1663a9059cbb338373ffffffffffffffffffffffffffffffffffffffff166370a08231306040518263ffffffff1660e01b8152600401808273ffffffffffffffffffffffffffffffffffffffff1673ffffffffffffffffffffffffffffffffffffffff16815260200191505060206040518083038186803b15801561049857600080fd5b505afa1580156104ac573d6000803e3d6000fd5b505050506040513d60208110156104c257600080fd5b81019080805190602001909291905050506040518363ffffffff1660e01b8152600401808373ffffffffffffffffffffffffffffffffffffffff1673ffffffffffffffffffffffffffffffffffffffff16815260200182815260200192505050602060405180830381600087803b15801561053c57600080fd5b505af1158015610550573d6000803e3d6000fd5b505050506040513d602081101561056657600080fd5b81019080805190602001909291905050506105e9576040517f08c379a00000000000000000000000000000000000000000000000000000000081526004018080602001828103825260128152602001807f556e61626c6520746f207472616e73666572000000000000000000000000000081525060200191505060405180910390fd5b50565b6105f4611169565b6105fc611169565b61061385858584610965909392919063ffffffff16565b9150509392505050565b610634828460800151610a1590919063ffffffff16565b61064b818460800151610a1590919063ffffffff16565b505050565b610667828460800151610a1590919063ffffffff16565b61067e818460800151610a3a90919063ffffffff16565b505050565b600030600454604051602001808373ffffffffffffffffffffffffffffffffffffffff1673ffffffffffffffffffffffffffffffffffffffff1660601b815260140182815260200192505050604051602081830303815290604052805190602001209050600454836060018181525050836005600083815260200190815260200160002060006101000a81548173ffffffffffffffffffffffffffffffffffffffff021916908373ffffffffffffffffffffffffffffffffffffffff160217905550807fb5e6e01e79f91267dc17b4e6314d5d4d03593d2ceee0fbb452b750bd70ea5af960405160405180910390a2600260009054906101000a900473ffffffffffffffffffffffffffffffffffffffff1673ffffffffffffffffffffffffffffffffffffffff16634000aea085846107bb87610ade565b6040518463ffffffff1660e01b8152600401808473ffffffffffffffffffffffffffffffffffffffff1673ffffffffffffffffffffffffffffffffffffffff16815260200183815260200180602001828103825283818151815260200191508051906020019080838360005b83811015610842578082015181840152602081019050610827565b50505050905090810190601f16801561086f5780820380516001836020036101000a031916815260200191505b50945050505050602060405180830381600087803b15801561089057600080fd5b505af11580156108a4573d6000803e3d6000fd5b505050506040513d60208110156108ba57600080fd5b8101908080519060200190929190505050610920576040517f08c379a00000000000000000000000000000000000000000000000000000000081526004018080602001828103825260238152602001806112686023913960400191505060405180910390fd5b60016004600082825401925050819055508090509392505050565b6000600260009054906101000a900473ffffffffffffffffffffffffffffffffffffffff16905090565b61096d611169565b61097d8560800151610100610ce5565b508385600001818152505082856020019073ffffffffffffffffffffffffffffffffffffffff16908173ffffffffffffffffffffffffffffffffffffffff16815250508185604001907bffffffffffffffffffffffffffffffffffffffffffffffffffffffff191690817bffffffffffffffffffffffffffffffffffffffffffffffffffffffff191681525050849050949350505050565b610a228260038351610d39565b610a358183610e7e90919063ffffffff16565b505050565b7fffffffffffffffffffffffffffffffffffffffffffffffff0000000000000000811215610a7157610a6c8282610ea0565b610ada565b67ffffffffffffffff811315610a9057610a8b8282610f0e565b610ad9565b60008112610aa957610aa482600083610d39565b610ad8565b610ad7826001837fffffffffffffffffffffffffffffffffffffffffffffffffffffffffffffffff03610d39565b5b5b5b5050565b6060600360009054906101000a900473ffffffffffffffffffffffffffffffffffffffff1673ffffffffffffffffffffffffffffffffffffffff166340429946905060e01b60008084600001518560200151866040015187606001516001896080015160000151604051602401808973ffffffffffffffffffffffffffffffffffffffff1673ffffffffffffffffffffffffffffffffffffffff1681526020018881526020018781526020018673ffffffffffffffffffffffffffffffffffffffff1673ffffffffffffffffffffffffffffffffffffffff168152602001857bffffffffffffffffffffffffffffffffffffffffffffffffffffffff19167bffffffffffffffffffffffffffffffffffffffffffffffffffffffff1916815260200184815260200183815260200180602001828103825283818151815260200191508051906020019080838360005b83811015610c48578082015181840152602081019050610c2d565b50505050905090810190601f168015610c755780820380516001836020036101000a031916815260200191505b509950505050505050505050604051602081830303815290604052907bffffffffffffffffffffffffffffffffffffffffffffffffffffffff19166020820180517bffffffffffffffffffffffffffffffffffffffffffffffffffffffff83818316178352505050509050919050565b610ced6111d6565b600060208381610cf957fe5b0614610d125760208281610d0957fe5b06602003820191505b81836020018181525050604051808452600081528281016020016040525082905092915050565b60178111610d6657610d608160058460ff16901b60ff161784610f5a90919063ffffffff16565b50610e79565b60ff8111610da857610d8b601860058460ff16901b1784610f5a90919063ffffffff16565b50610da281600185610f7a9092919063ffffffff16565b50610e78565b61ffff8111610deb57610dce601960058460ff16901b1784610f5a90919063ffffffff16565b50610de581600285610f7a9092919063ffffffff16565b50610e77565b63ffffffff8111610e3057610e13601a60058460ff16901b1784610f5a90919063ffffffff16565b50610e2a81600485610f7a9092919063ffffffff16565b50610e76565b67ffffffffffffffff8111610e7557610e5c601b60058460ff16901b1784610f5a90919063ffffffff16565b50610e7381600885610f7a9092919063ffffffff16565b505b5b5b5b5b505050565b610e866111d6565b610e9883846000015151848551610f9c565b905092915050565b610ebe60036005600660ff16901b1783610f5a90919063ffffffff16565b50610f0a82827fffffffffffffffffffffffffffffffffffffffffffffffffffffffffffffffff0360405160200180828152602001915050604051602081830303815290604052611055565b5050565b610f2c60026005600660ff16901b1783610f5a90919063ffffffff16565b50610f56828260405160200180828152602001915050604051602081830303815290604052611055565b5050565b610f626111d6565b610f72838460000151518461107a565b905092915050565b610f826111d6565b610f938485600001515185856110c8565b90509392505050565b610fa46111d6565b8251821115610fb257600080fd5b84602001518285011115610fdd57610fdc856002610fd68860200151888701611129565b02611145565b5b600080865180518760208301019350808887011115610ffc5787860182525b60208701925050505b602084106110285780518252602082019150602081019050602084039350611005565b60006001856020036101000a03905080198251168184511681811785525050879350505050949350505050565b6110628260028351610d39565b6110758183610e7e90919063ffffffff16565b505050565b6110826111d6565b8360200151831061109f5761109e846002866020015102611145565b5b83518051602085830101848153818614156110bb576001820183525b5050508390509392505050565b6110d06111d6565b846020015184830111156110ee576110ed85600286850102611145565b5b60006001836101000a039050855183868201018583198251161781528151858801111561111b5784870182525b505085915050949350505050565b60008183111561113b5782905061113f565b8190505b92915050565b6060826000015190506111588383610ce5565b506111638382610e7e565b50505050565b6040518060a0016040528060008019168152602001600073ffffffffffffffffffffffffffffffffffffffff16815260200160007bffffffffffffffffffffffffffffffffffffffffffffffffffffffff19168152602001600081526020016111d06111f0565b81525090565b604051806040016040528060608152602001600081525090565b60405180604001604052806060815260200160008152509056fe68747470733a2f2f6170692e66696e6167652e636f2e756b2f6c6173742f74726164652f73746f636b2f414d5a4e3f6170696b65793d4150495f4b4559383547304855515543453342494636505643385a33545737564237414d4f444b756e61626c6520746f207472616e73666572416e6443616c6c20746f206f7261636c65536f75726365206d75737420626520746865206f7261636c65206f66207468652072657175657374a2646970667358221220698ace39cd6a85593bf3c284264f16c7d14b3d4231cf2d6a65ca2a213f369fb764736f6c63430006000033",
  "source": "pragma solidity ^0.6.0;\n\nimport \"@chainlink/contracts/src/v0.6/ChainlinkClient.sol\";\n//import \"https://github.com/smartcontractkit/chainlink/blob/develop/contracts/src/v0.6/ChainlinkClient.sol\";\n\ncontract PriceAMZN is ChainlinkClient {\n    using Chainlink for Chainlink.Request;\n  \n    uint256 private price;\n    \n    address private oracle;\n    bytes32 private jobId;\n    uint256 private fee;\n    address private buyerAddress;\n    \n    /**\n     * Network: Kovan\n     * Oracle: 0xc57B33452b4F7BB189bB5AfaE9cc4aBa1f7a4FD8 (Chainlink Devrel   \n     * Node)\n     * Job ID: d5270d1c311941d0b08bead21fea7747\n     * Fee: 0.1 LINK\n     */\n    constructor() public {\n        setPublicChainlinkToken();\n        oracle = 0xc57B33452b4F7BB189bB5AfaE9cc4aBa1f7a4FD8;\n        jobId = \"d5270d1c311941d0b08bead21fea7747\";\n        fee = 0.1 * 10 ** 18; // (Varies by network and job)\n    }\n    \n    /**\n     * Create a Chainlink request to retrieve API response, find the target\n     * data, then multiply by 100 (to remove decimal places from data).\n     */\n    function requestPrice() public returns (uint256){\n        \n        Chainlink.Request memory request = buildChainlinkRequest(jobId, address(this), this.fulfill.selector);\n        \n        // Set the URL to perform the GET request on\n        request.add(\"get\", string(abi.encodePacked(\"https://api.finage.co.uk/last/trade/stock/AMZN?apikey=API_KEY85G0HUQUCE3BIF6PVC8Z3TW7VB7AMODK\")));\n\n        request.add(\"path\", \"price\");\n        \n        // Multiply the result by 100 to remove decimals\n        int timesAmount = 100;\n        request.addInt(\"times\", timesAmount);\n        \n        // Sends the request\n        sendChainlinkRequestTo(oracle, request, fee);\n        return price;\n    }\n    \n    /**\n     * Receive the response in the form of uint256\n     */ \n    function fulfill(bytes32 _requestId, uint256 _price) public recordChainlinkFulfillment(_requestId) {\n        price = _price;\n    }\n\n    // function withdrawLink() external {}\n    function withdrawLink() public {\n        LinkTokenInterface link = LinkTokenInterface(chainlinkTokenAddress());\n        require(link.transfer(msg.sender, link.balanceOf(address(this))), \"Unable to transfer\");\n    }\n    \n    function getContractAddress() public view returns (address){\n        return address(this);\n    }\n    \n    function getPriceAMZN() public view returns (uint256){\n        return price;\n    }\n    \n}\n",
  "sourcePath": "/Users/ocr/Desktop/TestETH/contracts/PriceAMZN.sol",
  "compiler": {
    "name": "solc",
    "version": "0.6.0+commit.26b70077.Emscripten.clang"
  },
  "schemaVersion": "3.4.3",
  "updatedAt": "2021-09-02T15:27:54.096Z",
  "devdoc": {
    "methods": {}
  },
  "userdoc": {
    "methods": {
      "constructor": "Network: Kovan Oracle: 0xc57B33452b4F7BB189bB5AfaE9cc4aBa1f7a4FD8 (Chainlink Devrel    Node) Job ID: d5270d1c311941d0b08bead21fea7747 Fee: 0.1 LINK",
      "fulfill(bytes32,uint256)": {
        "notice": "Receive the response in the form of uint256"
      },
      "requestPrice()": {
        "notice": "Create a Chainlink request to retrieve API response, find the target data, then multiply by 100 (to remove decimal places from data)."
      }
    }
  }
}