{
  "contractName": "PriceAMZN",
  "abi": [
    {
      "inputs": [],
      "stateMutability": "nonpayable",
      "type": "constructor"
    },
    {
      "anonymous": false,
      "inputs": [
        {
          "indexed": true,
          "internalType": "bytes32",
          "name": "id",
          "type": "bytes32"
        }
      ],
      "name": "ChainlinkCancelled",
      "type": "event"
    },
    {
      "anonymous": false,
      "inputs": [
        {
          "indexed": true,
          "internalType": "bytes32",
          "name": "id",
          "type": "bytes32"
        }
      ],
      "name": "ChainlinkFulfilled",
      "type": "event"
    },
    {
      "anonymous": false,
      "inputs": [
        {
          "indexed": true,
          "internalType": "bytes32",
          "name": "id",
          "type": "bytes32"
        }
      ],
      "name": "ChainlinkRequested",
      "type": "event"
    },
    {
      "inputs": [],
      "name": "requestPrice",
      "outputs": [],
      "stateMutability": "nonpayable",
      "type": "function"
    },
    {
      "inputs": [
        {
          "internalType": "bytes32",
          "name": "_requestId",
          "type": "bytes32"
        },
        {
          "internalType": "uint256",
          "name": "_price",
          "type": "uint256"
        }
      ],
      "name": "fulfill",
      "outputs": [],
      "stateMutability": "nonpayable",
      "type": "function"
    },
    {
      "inputs": [],
      "name": "withdrawLink",
      "outputs": [],
      "stateMutability": "nonpayable",
      "type": "function"
    },
    {
      "inputs": [],
      "name": "getContractAddress",
      "outputs": [
        {
          "internalType": "address",
          "name": "",
          "type": "address"
        }
      ],
      "stateMutability": "view",
      "type": "function"
    },
    {
      "inputs": [],
      "name": "getPriceAMZN",
      "outputs": [
        {
          "internalType": "uint256",
          "name": "",
          "type": "uint256"
        }
      ],
      "stateMutability": "view",
      "type": "function"
    }
  ],
  "bytecode": "0x6080604052600160045534801561001557600080fd5b506100246100b460201b60201c565b73c57b33452b4f7bb189bb5afae9cc4aba1f7a4fd8600760006101000a81548173ffffffffffffffffffffffffffffffffffffffff021916908373ffffffffffffffffffffffffffffffffffffffff1602179055507f643532373064316333313139343164306230386265616432316665613737343760088190555067016345785d8a000060098190555061019d565b61015773c89bd4e1632d3a43cb03aaad5262cbe4038bc57173ffffffffffffffffffffffffffffffffffffffff166338cc48316040518163ffffffff1660e01b815260040160206040518083038186803b15801561011157600080fd5b505afa158015610125573d6000803e3d6000fd5b505050506040513d602081101561013b57600080fd5b810190808051906020019092919050505061015960201b60201c565b565b80600260006101000a81548173ffffffffffffffffffffffffffffffffffffffff021916908373ffffffffffffffffffffffffffffffffffffffff16021790555050565b6112cc806101ac6000396000f3fe608060405234801561001057600080fd5b50600436106100575760003560e01c80631604f9ea1461005c57806332a2c5d0146100665780634357855e146100b05780637c68380e146100e85780638dc654a214610106575b600080fd5b610064610110565b005b61006e61029d565b604051808273ffffffffffffffffffffffffffffffffffffffff1673ffffffffffffffffffffffffffffffffffffffff16815260200191505060405180910390f35b6100e6600480360360408110156100c657600080fd5b8101908080359060200190929190803590602001909291905050506102a5565b005b6100f06103cc565b6040518082815260200191505060405180910390f35b61010e6103d6565b005b61011861114d565b61012c60085430634357855e60e01b6105d0565b905061019a6040518060400160405280600381526020017f676574000000000000000000000000000000000000000000000000000000000081525060405160200180806111ef605d9139605d019050604051602081830303815290604052836106019092919063ffffffff16565b6102196040518060400160405280600481526020017f70617468000000000000000000000000000000000000000000000000000000008152506040518060400160405280600581526020017f7072696365000000000000000000000000000000000000000000000000000000815250836106019092919063ffffffff16565b6000606490506102696040518060400160405280600581526020017f74696d657300000000000000000000000000000000000000000000000000000081525082846106349092919063ffffffff16565b610298600760009054906101000a900473ffffffffffffffffffffffffffffffffffffffff1683600954610667565b505050565b600030905090565b816005600082815260200190815260200160002060009054906101000a900473ffffffffffffffffffffffffffffffffffffffff1673ffffffffffffffffffffffffffffffffffffffff163373ffffffffffffffffffffffffffffffffffffffff161461035d576040517f08c379a000000000000000000000000000000000000000000000000000000000815260040180806020018281038252602881526020018061126f6028913960400191505060405180910390fd5b6005600082815260200190815260200160002060006101000a81549073ffffffffffffffffffffffffffffffffffffffff0219169055807f7cc135e0cebb02c3480ae5d74d377283180a2601f8f644edf7987b009316c63a60405160405180910390a281600681905550505050565b6000600654905090565b60006103e061091f565b90508073ffffffffffffffffffffffffffffffffffffffff1663a9059cbb338373ffffffffffffffffffffffffffffffffffffffff166370a08231306040518263ffffffff1660e01b8152600401808273ffffffffffffffffffffffffffffffffffffffff1673ffffffffffffffffffffffffffffffffffffffff16815260200191505060206040518083038186803b15801561047c57600080fd5b505afa158015610490573d6000803e3d6000fd5b505050506040513d60208110156104a657600080fd5b81019080805190602001909291905050506040518363ffffffff1660e01b8152600401808373ffffffffffffffffffffffffffffffffffffffff1673ffffffffffffffffffffffffffffffffffffffff16815260200182815260200192505050602060405180830381600087803b15801561052057600080fd5b505af1158015610534573d6000803e3d6000fd5b505050506040513d602081101561054a57600080fd5b81019080805190602001909291905050506105cd576040517f08c379a00000000000000000000000000000000000000000000000000000000081526004018080602001828103825260128152602001807f556e61626c6520746f207472616e73666572000000000000000000000000000081525060200191505060405180910390fd5b50565b6105d861114d565b6105e061114d565b6105f785858584610949909392919063ffffffff16565b9150509392505050565b6106188284608001516109f990919063ffffffff16565b61062f8184608001516109f990919063ffffffff16565b505050565b61064b8284608001516109f990919063ffffffff16565b610662818460800151610a1e90919063ffffffff16565b505050565b600030600454604051602001808373ffffffffffffffffffffffffffffffffffffffff1673ffffffffffffffffffffffffffffffffffffffff1660601b815260140182815260200192505050604051602081830303815290604052805190602001209050600454836060018181525050836005600083815260200190815260200160002060006101000a81548173ffffffffffffffffffffffffffffffffffffffff021916908373ffffffffffffffffffffffffffffffffffffffff160217905550807fb5e6e01e79f91267dc17b4e6314d5d4d03593d2ceee0fbb452b750bd70ea5af960405160405180910390a2600260009054906101000a900473ffffffffffffffffffffffffffffffffffffffff1673ffffffffffffffffffffffffffffffffffffffff16634000aea0858461079f87610ac2565b6040518463ffffffff1660e01b8152600401808473ffffffffffffffffffffffffffffffffffffffff1673ffffffffffffffffffffffffffffffffffffffff16815260200183815260200180602001828103825283818151815260200191508051906020019080838360005b8381101561082657808201518184015260208101905061080b565b50505050905090810190601f1680156108535780820380516001836020036101000a031916815260200191505b50945050505050602060405180830381600087803b15801561087457600080fd5b505af1158015610888573d6000803e3d6000fd5b505050506040513d602081101561089e57600080fd5b8101908080519060200190929190505050610904576040517f08c379a000000000000000000000000000000000000000000000000000000000815260040180806020018281038252602381526020018061124c6023913960400191505060405180910390fd5b60016004600082825401925050819055508090509392505050565b6000600260009054906101000a900473ffffffffffffffffffffffffffffffffffffffff16905090565b61095161114d565b6109618560800151610100610cc9565b508385600001818152505082856020019073ffffffffffffffffffffffffffffffffffffffff16908173ffffffffffffffffffffffffffffffffffffffff16815250508185604001907bffffffffffffffffffffffffffffffffffffffffffffffffffffffff191690817bffffffffffffffffffffffffffffffffffffffffffffffffffffffff191681525050849050949350505050565b610a068260038351610d1d565b610a198183610e6290919063ffffffff16565b505050565b7fffffffffffffffffffffffffffffffffffffffffffffffff0000000000000000811215610a5557610a508282610e84565b610abe565b67ffffffffffffffff811315610a7457610a6f8282610ef2565b610abd565b60008112610a8d57610a8882600083610d1d565b610abc565b610abb826001837fffffffffffffffffffffffffffffffffffffffffffffffffffffffffffffffff03610d1d565b5b5b5b5050565b6060600360009054906101000a900473ffffffffffffffffffffffffffffffffffffffff1673ffffffffffffffffffffffffffffffffffffffff166340429946905060e01b60008084600001518560200151866040015187606001516001896080015160000151604051602401808973ffffffffffffffffffffffffffffffffffffffff1673ffffffffffffffffffffffffffffffffffffffff1681526020018881526020018781526020018673ffffffffffffffffffffffffffffffffffffffff1673ffffffffffffffffffffffffffffffffffffffff168152602001857bffffffffffffffffffffffffffffffffffffffffffffffffffffffff19167bffffffffffffffffffffffffffffffffffffffffffffffffffffffff1916815260200184815260200183815260200180602001828103825283818151815260200191508051906020019080838360005b83811015610c2c578082015181840152602081019050610c11565b50505050905090810190601f168015610c595780820380516001836020036101000a031916815260200191505b509950505050505050505050604051602081830303815290604052907bffffffffffffffffffffffffffffffffffffffffffffffffffffffff19166020820180517bffffffffffffffffffffffffffffffffffffffffffffffffffffffff83818316178352505050509050919050565b610cd16111ba565b600060208381610cdd57fe5b0614610cf65760208281610ced57fe5b06602003820191505b81836020018181525050604051808452600081528281016020016040525082905092915050565b60178111610d4a57610d448160058460ff16901b60ff161784610f3e90919063ffffffff16565b50610e5d565b60ff8111610d8c57610d6f601860058460ff16901b1784610f3e90919063ffffffff16565b50610d8681600185610f5e9092919063ffffffff16565b50610e5c565b61ffff8111610dcf57610db2601960058460ff16901b1784610f3e90919063ffffffff16565b50610dc981600285610f5e9092919063ffffffff16565b50610e5b565b63ffffffff8111610e1457610df7601a60058460ff16901b1784610f3e90919063ffffffff16565b50610e0e81600485610f5e9092919063ffffffff16565b50610e5a565b67ffffffffffffffff8111610e5957610e40601b60058460ff16901b1784610f3e90919063ffffffff16565b50610e5781600885610f5e9092919063ffffffff16565b505b5b5b5b5b505050565b610e6a6111ba565b610e7c83846000015151848551610f80565b905092915050565b610ea260036005600660ff16901b1783610f3e90919063ffffffff16565b50610eee82827fffffffffffffffffffffffffffffffffffffffffffffffffffffffffffffffff0360405160200180828152602001915050604051602081830303815290604052611039565b5050565b610f1060026005600660ff16901b1783610f3e90919063ffffffff16565b50610f3a828260405160200180828152602001915050604051602081830303815290604052611039565b5050565b610f466111ba565b610f56838460000151518461105e565b905092915050565b610f666111ba565b610f778485600001515185856110ac565b90509392505050565b610f886111ba565b8251821115610f9657600080fd5b84602001518285011115610fc157610fc0856002610fba886020015188870161110d565b02611129565b5b600080865180518760208301019350808887011115610fe05787860182525b60208701925050505b6020841061100c5780518252602082019150602081019050602084039350610fe9565b60006001856020036101000a03905080198251168184511681811785525050879350505050949350505050565b6110468260028351610d1d565b6110598183610e6290919063ffffffff16565b505050565b6110666111ba565b8360200151831061108357611082846002866020015102611129565b5b835180516020858301018481538186141561109f576001820183525b5050508390509392505050565b6110b46111ba565b846020015184830111156110d2576110d185600286850102611129565b5b60006001836101000a03905085518386820101858319825116178152815185880111156110ff5784870182525b505085915050949350505050565b60008183111561111f57829050611123565b8190505b92915050565b60608260000151905061113c8383610cc9565b506111478382610e62565b50505050565b6040518060a0016040528060008019168152602001600073ffffffffffffffffffffffffffffffffffffffff16815260200160007bffffffffffffffffffffffffffffffffffffffffffffffffffffffff19168152602001600081526020016111b46111d4565b81525090565b604051806040016040528060608152602001600081525090565b60405180604001604052806060815260200160008152509056fe68747470733a2f2f6170692e66696e6167652e636f2e756b2f6c6173742f74726164652f73746f636b2f414d5a4e3f6170696b65793d4150495f4b4559383547304855515543453342494636505643385a33545737564237414d4f444b756e61626c6520746f207472616e73666572416e6443616c6c20746f206f7261636c65536f75726365206d75737420626520746865206f7261636c65206f66207468652072657175657374a26469706673582212205ec9b1b59ef078025716f68669d2a701f8b1eb5039f00141320173f2bfa6532964736f6c63430006000033",
  "source": "pragma solidity ^0.6.0;\n\nimport \"@chainlink/contracts/src/v0.6/ChainlinkClient.sol\";\n//import \"https://github.com/smartcontractkit/chainlink/blob/develop/contracts/src/v0.6/ChainlinkClient.sol\";\n\ncontract PriceAMZN is ChainlinkClient {\n    using Chainlink for Chainlink.Request;\n  \n    uint256 private price;\n    \n    address private oracle;\n    bytes32 private jobId;\n    uint256 private fee;\n    address private buyerAddress;\n    \n    /**\n     * Network: Kovan\n     * Oracle: 0xc57B33452b4F7BB189bB5AfaE9cc4aBa1f7a4FD8 (Chainlink Devrel   \n     * Node)\n     * Job ID: d5270d1c311941d0b08bead21fea7747\n     * Fee: 0.1 LINK\n     */\n    constructor() public {\n        setPublicChainlinkToken();\n        oracle = 0xc57B33452b4F7BB189bB5AfaE9cc4aBa1f7a4FD8;\n        jobId = \"d5270d1c311941d0b08bead21fea7747\";\n        fee = 0.1 * 10 ** 18; // (Varies by network and job)\n    }\n\n    /**\n     * Create a Chainlink request to retrieve API response, find the target\n     * data, then multiply by 100 (to remove decimal places from data).\n     */\n    function requestPrice() public {\n        \n        Chainlink.Request memory request = buildChainlinkRequest(jobId, address(this), this.fulfill.selector);\n        \n        // Set the URL to perform the GET request on\n        request.add(\"get\", string(abi.encodePacked(\"https://api.finage.co.uk/last/trade/stock/AMZN?apikey=API_KEY85G0HUQUCE3BIF6PVC8Z3TW7VB7AMODK\")));\n\n        request.add(\"path\", \"price\");\n        \n        // Multiply the result by 100 to remove decimals\n        int timesAmount = 100;\n        request.addInt(\"times\", timesAmount);\n        \n        // Sends the request\n        sendChainlinkRequestTo(oracle, request, fee);\n    }\n    \n    /**\n     * Receive the response in the form of uint256\n     */ \n    function fulfill(bytes32 _requestId, uint256 _price) public recordChainlinkFulfillment(_requestId) {\n        price = _price;\n    }\n\n    // function withdrawLink() external {}\n    function withdrawLink() public {\n        LinkTokenInterface link = LinkTokenInterface(chainlinkTokenAddress());\n        require(link.transfer(msg.sender, link.balanceOf(address(this))), \"Unable to transfer\");\n    }\n    \n    function getContractAddress() public view returns (address){\n        return address(this);\n    }\n    \n    function getPriceAMZN() public view returns (uint256){\n        return price;\n    }\n    \n}\n",
  "sourcePath": "/Users/ocr/Desktop/TestETH/contracts/PriceAMZN.sol",
  "compiler": {
    "name": "solc",
    "version": "0.6.0+commit.26b70077.Emscripten.clang"
  },
  "schemaVersion": "3.4.3",
  "updatedAt": "2021-09-02T17:20:09.485Z",
  "devdoc": {
    "methods": {}
  },
  "userdoc": {
    "methods": {
      "constructor": "Network: Kovan Oracle: 0xc57B33452b4F7BB189bB5AfaE9cc4aBa1f7a4FD8 (Chainlink Devrel    Node) Job ID: d5270d1c311941d0b08bead21fea7747 Fee: 0.1 LINK",
      "fulfill(bytes32,uint256)": {
        "notice": "Receive the response in the form of uint256"
      },
      "requestPrice()": {
        "notice": "Create a Chainlink request to retrieve API response, find the target data, then multiply by 100 (to remove decimal places from data)."
      }
    }
  }
}